:100000000C945D000C9485000C9485000C94850084
:100010000C9485000C9485000C9485000C9485004C
:100020000C9485000C9485000C9485000C9485003C
:100030000C9485000C9485000C9485000C9485002C
:100040000C9402040C9485000C943A030C94BE01A9
:100050000C9485000C9485000C9485000C9485000C
:100060000C9483060C9485000000000025002800F5
:100070002B0000000000240027002A0004040404D0
:100080000404040402020202020203030303030342
:10009000010204081020408001020408102001021F
:1000A00004081020000000080002010000030407FB
:1000B0000000000000000000CF0711241FBECFEF9A
:1000C000D8E0DEBFCDBF23E0A2E4B1E001C01D92C5
:1000D000A132B207E1F711E0A0E0B1E0E6E6F5E118
:1000E00002C005900D92A234B107D9F710E0CDE51A
:1000F000D0E004C02197FE010E94A60ACC35D107AA
:10010000C9F70E943B080C94B10A0C940000EEEA77
:10011000F1E0A089B18982E08C93A485B5851C9219
:10012000A685B78580E18C93108EA489B58986E079
:100130008C93A289B3898C9180618C93A289B389B5
:100140008C9188608C93A289B3898C9180688C9300
:100150000288F389E02D80818F7D80830895CF927E
:10016000DF92EF92FF920F931F93CF93DF936C0177
:100170007A018B01C0E0D0E0CE15DF0589F0D8010F
:100180006D918D01D601ED91FC910190F081E02DF2
:10019000C6010995892B11F47E0102C02196ECCF8E
:1001A000C701DF91CF911F910F91FF90EF90DF90EA
:1001B000CF9008958EEA91E00E94150221E0892BEC
:1001C00009F420E0822F089540E0682F85EB92E04B
:1001D0000C94090680E80C94E40091E09093AD0142
:1001E00080936C021092AC011092AB0108952091A3
:1001F000AB0190916C02213208F04AC080918A01D3
:100200008111FCCF32E030938A0131E030938901D3
:100210003FEF309388011092870120938601ABE86D
:10022000B1E046E651E0FA013E2F341B321718F4D4
:100230003D913193F9CF1092650120916501990F9D
:10024000922B9093650190916401913061F410922A
:100250006401909165019093BB009091BC0093FD67
:10026000F8CF95EC01C095EE9093BC0090918A0177
:100270009230E1F3909188019F3F79F0809188015D
:10028000803241F080918801803331F084E005C0F4
:1002900081E003C082E001C083E01092AC011092C3
:1002A000AB011092AD01089590918A019111FCCF9C
:1002B000613208F060E291E090938A0190938901A5
:1002C0002FEF2093880110928701260F209386013B
:1002D0009093650190916501880F892B809365014A
:1002E00080916401813061F4109264018091650114
:1002F0008093BB008091BC0083FDF8CF85EC01C0EA
:1003000085EE8093BC0080918A018130E1F3809179
:100310008701861710F460918701A6E6B1E024E416
:1003200031E0F9018E2F821B861718F48D9181938D
:10033000F9CF1092430160934201862F089590E017
:10034000FC01E057FF4F2491FC01E458FF4F8491DA
:10035000882399F090E0880F991FFC01EE58FF4F19
:10036000A591B491FC01E859FF4F859194918FB705
:10037000F894EC91E22BEC938FBF08951F920F92AB
:100380000FB60F9211242F933F934F935F936F9368
:100390007F938F939F93AF93BF93EF93FF938EEAD7
:1003A00091E00E946C03FF91EF91BF91AF919F91FB
:1003B0008F917F916F915F914F913F912F910F900E
:1003C0000FBE0F901F901895FC01538D448D252F63
:1003D00030E0842F90E0821B930B541710F0CF96DF
:1003E000089501970895FC01918D828D981761F011
:1003F000828DDF01A80FB11D5D968C91928D9F5F5C
:100400009F73928F90E008958FEF9FEF0895FC0106
:10041000918D828D981731F0828DE80FF11D858DB9
:1004200090E008958FEF9FEF0895FC01918D228D4C
:10043000892F90E0805C9F4F821B91098F739927D1
:10044000089580E090E0892B29F00E94DA00811164
:100450000C940000089590E0FC01EC55FF4F34919E
:10046000FC01E057FF4F2491FC01E458FF4FE49159
:10047000EE2309F43BC0332339F1333091F038F4E3
:100480003130A9F0323001F584B58F7D12C037309C
:1004900091F03830A1F03430B9F4809180008F7D34
:1004A00003C0809180008F77809380000DC084B559
:1004B0008F7784BD09C08091B0008F7703C0809191
:1004C000B0008F7D8093B000F0E0EE0FFF1FE85981
:1004D000FF4FA591B4918FB7F894EC91611103C0CF
:1004E00020952E2301C02E2B2C938FBF089585EDD0
:1004F0008093BC008091BC0084FDFCCF10928A01E7
:1005000008954091F302262F30E0240F311D21324F
:100510003105DCF420918A012430C9F4FC0180E02B
:1005200090E0861758F43091F3022191DC01AF522C
:10053000BD4FA30FB11D2C930196F3CF8091F30211
:10054000680F6093F30280E0089581E0089582E0EF
:1005500008950895E091430180914201E81730F435
:10056000F0E0EC5BFE4F808190E008958FEF9FEF0D
:1005700008959091430180914201981750F4E92F1A
:10058000F0E0EC5BFE4F208130E09F5F90934301F1
:1005900002C02FEF3FEFC90108958091420190E022
:1005A00020914301821B91090895CF92DF92EF922F
:1005B000FF920F931F93CF93DF937C01262F972FEA
:1005C0008A018091AD01882391F0C62FD72F6E014B
:1005D000C40ED51ECC15DD0571F06991D701ED91E2
:1005E000FC910190F081E02DC7010995F3CF642FB4
:1005F000822F0E948102C801DF91CF911F910F913C
:10060000FF90EF90DF90CF900895CF93DF931F92EC
:10061000CDB7DEB769832091AD012223D1F02091BF
:10062000AB01203240F021E030E0FC013383228333
:1006300080E090E015C08091AC01E82FF0E0E55734
:10064000FE4F998190838F5F8093AC018093AB01C3
:1006500005C061E0CE0101960E94810281E090E038
:100660000F90DF91CF910895089580E090E0089574
:100670000E94AC0A1F920F920FB60F9211242F9373
:100680008F939F93EF93FF93E091BE01F091BF0191
:100690008081E091C401F091C50182FD12C090817A
:1006A0008091C7018F5F8F732091C801821751F02D
:1006B000E091C701F0E0E255FE4F958F8093C701AE
:1006C00001C08081FF91EF919F918F912F910F90A9
:1006D0000FBE0F901F901895FC01848DDF01A80FAD
:1006E000B11DA35ABF4F2C91848D90E001968F735A
:1006F0009927848FA689B7892C93A089B1898C9179
:1007000080648C93938D848D981306C00288F3893E
:10071000E02D80818F7D80830895EF92FF920F936B
:100720001F93CF93DF93EC0181E0888F9B8D8C8D9D
:10073000981305C0E889F989808185FD24C0F62ECB
:100740000B8D10E00F5F1F4F0F731127E02E8C8D64
:10075000E8120CC00FB607FCFACFE889F98980814E
:1007600085FFF5CFCE010E946C03F1CF8B8DFE018A
:10077000E80FF11DE35AFF4FF0820B8FEA89FB89E6
:100780008081806207C0EE89FF896083E889F989EA
:1007900080818064808381E090E0DF91CF911F9120
:1007A0000F91FF90EF900895CF93DF93EC01888D28
:1007B0008823C9F0EA89FB89808185FD05C0A88965
:1007C000B9898C9186FD0FC00FB607FCF5CF8081EB
:1007D00085FFF2CFA889B9898C9185FFEDCFCE0135
:1007E0000E946C03E7CFDF91CF9108952FB7F89463
:1007F00060911D0370911E0380911F03909120034F
:100800002FBF08951F920F920FB60F9211242F93AE
:100810003F938F939F93AF93BF9380911D039091CC
:100820001E03A0911F03B091200330911C0323E00D
:10083000230F2D3720F40196A11DB11D05C026E818
:10084000230F0296A11DB11D20931C0380931D034D
:1008500090931E03A0931F03B0932003809118036D
:1008600090911903A0911A03B0911B030196A11D49
:10087000B11D8093180390931903A0931A03B093AA
:100880001B03BF91AF919F918F913F912F910F903B
:100890000FBE0F901F901895682F8BE492E00C9478
:1008A0000503EF92FF920F931F93CF93DF9300D036
:1008B000CDB7DEB77C01162F683020F0185095E1D7
:1008C00003E102C094E102E1F701808180624A8382
:1008D00099830E94ED009981892F0E944C040E9407
:1008E000F700F7019081892F806261E070E090E06D
:1008F0000E9454018BE492E00E94B9024A8121E0F7
:1009000030E001C0220F1A95EAF7413019F4122F96
:10091000182B03C02095122F1823F70180818062C5
:100920000E94ED00802F0E944C04812F0E944C04F5
:100930000F900F90DF91CF911F910F91FF90EF904B
:100940000C94F700EF92FF920F931F93CF93DF93D6
:100950001F92CDB7DEB77C01162F683018F0185003
:1009600001E001C000E0F7018081806249830E94BC
:10097000ED00802F0E944C040E94F700F701808157
:10098000806261E070E090E00E9454018BE492E0AC
:100990000E94B902498121E030E001C0220F1A957E
:1009A000EAF7411103C0122F182B03C02095122F14
:1009B0001823F701808180620E94ED00802F0E9441
:1009C0004C04812F0E944C040F90DF91CF911F9116
:1009D0000F91FF90EF900C94F700603110F40C949D
:1009E000A2040895CF93DF9300D0CDB7DEB7FC010A
:1009F0008081806269837A830E94ED0082E10E9497
:100A00004C046981862F0E944C047A81872F0E94B2
:100A10004C040F900F90DF91CF910C94F700FC01E4
:100A2000962F828D8F3F31F0603140F4CF014B968D
:100A30000C945104642F892F0C942B020895CF93AA
:100A4000DF93EC0140E06E810E940F0541E06E8172
:100A5000CE010E940F0540E06E81CE010E940F057D
:100A60008BE891E00197F1F7DF91CF9108958F9294
:100A70009F92AF92BF92CF92DF92EF92FF920F932D
:100A80001F93CF93DF93EC018A8D8E01095F1F4F77
:100A9000C62ED12C8F3F09F483C07E018BE1E80E76
:100AA000F11C8B8D80620E94ED0082E10E944C045B
:100AB0000E94F7008B8D806262E070E090E00E94FF
:100AC00054018BE492E00E94B902B82E8BE492E0CC
:100AD0000E94B902982F88279C012B29F801A0E0D9
:100AE000B0E061E070E0B19001E010E0CB010B2CD0
:100AF00002C0880F991F0A94E2F7809590952823E9
:100B00003923A6010A2E02C0559547950A94E2F7AB
:100B10004170552702C0440F551FBA94E2F7242BA9
:100B2000352B1196A430B105F1F668010E8002C094
:100B3000CC0CDD1C0A94E2F7C094D094C222D322DC
:100B4000B601C7010E94F204B8010E8002C0660F10
:100B5000771F0A94E2F7C62AD72AB601C7010E9476
:100B6000F2040E8002C0000F111F0A94E2F70095F4
:100B70001095B60160237123C7010E94F2048BE82F
:100B800091E00197F1F7DF91CF911F910F91FF90C5
:100B9000EF90DF90CF90BF90AF909F908F9008958F
:100BA000E12CF12C4E01EBE18E0E911C5801F80165
:100BB00080819A8D9F3F31F041E0682FC4010E94EF
:100BC000ED0402C00E949F010F5F1F4FA6010E2C73
:100BD00002C0559547950A94E2F74170F50160818E
:100BE000CE010E940F05FFEFEF1AFF0A84E0E8161E
:100BF000F104E1F6CE01DF91CF911F910F91FF90AB
:100C0000EF90DF90CF90BF90AF909F908F900C941B
:100C10001F058F929F92AF92BF92CF92DF92EF9279
:100C2000FF920F931F93CF93DF93EC01F62E6C810D
:100C30000E940F056D816F3F21F040E0CE010E94C0
:100C40000F058C890F2D10E084FF3EC06E0187E0F8
:100C5000C80ED11CE12CF12C4E01EBE18E0E911C43
:100C60005601F60180819A8D9F3F31F041E0682F57
:100C7000C4010E94ED0402C00E949F01FFEFCF1A41
:100C8000DF0AA8010E2C02C0559547950A94E2F799
:100C90004170F5016081CE010E940F05FFEFEF1A50
:100CA000FF0A88E0E816F104D9F6CE01DF91CF9172
:100CB0001F910F91FF90EF90DF90CF90BF90AF907A
:100CC0009F908F900C941F05B80184E075956795EF
:100CD0008A95E1F7CE010E9437056F2DCE01DF9195
:100CE000CF911F910F91FF90EF90DF90CF90BF9029
:100CF000AF909F908F900C94370541E00E940906B9
:100D000081E090E008951F920F920FB60F92112488
:100D10002F933F934F935F936F937F938F939F9303
:100D2000AF93BF93EF93FF938091B900887F803694
:100D300009F49CC068F5883209F45BC090F48031F6
:100D400009F454C038F4882309F4F6C0883009F453
:100D50004DC0F6C0883109F44CC0803209F45DC042
:100D6000EFC0803409F468C048F4803309F455C0FA
:100D7000883309F0E5C080938801D8C0803509F434
:100D80004FC0883509F45DC0883409F0D9C0D6C099
:100D9000883909F4C7C0A8F4883709F467C038F463
:100DA000883609F463C0803709F460C0C9C0883848
:100DB00009F4B8C0803909F45FC0803809F0C0C0B8
:100DC0005BC0803B09F486C038F4803A09F466C001
:100DD000883A09F47FC0B4C0803C09F4A7C0883CBD
:100DE00009F4A4C0883B09F48AC0AAC080916501B7
:100DF00010C09091870180918601981770F5E0915D
:100E0000870181E08E0F80938701F0E0EA59FE4F61
:100E100080818093BB0085EC86C0809388018EC062
:100E2000E091870181E08E0F809387018091BB0064
:100E3000F0E0EA59FE4F808390918701809186010E
:100E40006EC0E091870181E08E0F809387018091D1
:100E5000BB00F0E0EA59FE4F808380918901811147
:100E60006DC081E08093640184EA61C083E0809377
:100E70008A0110921703CFCF80911703803208F0B8
:100E800051C0E091170381E08E0F8093170380918A
:100E9000BB00F0E0E950FD4F8083BDCF85EC80932F
:100EA000BC0010928A0180911703803230F4E091E7
:100EB0001703F0E0E950FD4F10826091170370E0D6
:100EC000E091F502F091F60287EF92E00995109219
:100ED000170336C084E080938A011092F4021092C6
:100EE000F302E091F102F091F20209958091F30290
:100EF000811105C081E08093F3021092D102E0914C
:100F0000F40281E08E0F8093F402F0E0EF52FD4F87
:100F100080818093BB009091F4028091F302981736
:100F200008F479CF85E88093BC000AC085EC8093F3
:100F3000BC0010928A0104C0109288010E947702BE
:100F4000FF91EF91BF91AF919F918F917F916F91A1
:100F50005F914F913F912F910F900FBE0F901F9077
:100F6000189510928A0181E08093890110926401A2
:100F700061E082E10E942B0261E083E10E942B028A
:100F8000E9EBF0E080818E7F808380818D7F80839C
:100F900088E48093B80085E48093BC000895EEEA6D
:100FA000F1E01382128288EE93E0A0E0B0E0848347
:100FB0009583A683B78324E031E03183208325EC39
:100FC00030E03587248724EC30E03787268720EC13
:100FD00030E0318B208B21EC30E0338B228B22EC04
:100FE00030E0358B248B26EC30E0378B268B118E4E
:100FF000128E138E148EEDE6F2E0168217821086A2
:101000001186128613861486158616861786108A10
:10101000118A128A138A148A158AEBE4F2E0138289
:10102000128284839583A683B78386E191E09183BE
:101030008083E5EBF2E01382128288E291E09183F3
:101040008083128E148A8FE084838EE085838DE006
:1010500086838CE087838BE080878AE0818789E0C4
:101060008287178681E0808B82E0818B83E0828B90
:1010700084E0838B0895789484B5826084BD84B5C0
:10108000816084BD85B5826085BD85B5816085BD83
:1010900080916E00816080936E001092810080913B
:1010A00081008260809381008091810081608093C3
:1010B0008100809180008160809380008091B100E8
:1010C00084608093B1008091B00081608093B00013
:1010D00080917A00846080937A0080917A008260A7
:1010E00080937A0080917A00816080937A00809169
:1010F0007A00806880937A001092C1001092B10249
:101100001092B2021092B3021092B40210926F02C7
:101110001092700210927102109272020E94F603F5
:101120006B017C014B015C0188EB880E8BE0981E03
:10113000A11CB11C0E94F6036C157D058E059F0550
:1011400028F086169706A806B906A0F78EEA91E061
:101150009093B0028093AF020E9487000E94F60332
:1011600060936F0270937002809371029093720289
:101170008091AF029091B002DC01ED91FC91028070
:10118000F381E02D41E150E060E371E009950E94B8
:10119000F6036B017C014B015C01BAE08B0E911CE4
:1011A000A11CB11C0E94F6036C157D058E059F05E0
:1011B00028F086169706A806B906A0F781E0809366
:1011C00083020E9487008EE180936B0210926A0274
:1011D00010926902109267021092660210926502E4
:1011E000E2EBF7E000E019E024E638E3C4E6D0E003
:1011F00080E9E82EFF24F394CF0183709927892B8F
:1012000081F4CF01BE010E947E0A892B31F4CF0107
:10121000B7010E947E0A892B21F400581E4A2E4FE6
:101220003F4F3196E03D87E0F80731F7D901C8011B
:1012300080589145A140B109809361029093620268
:10124000A0936302B0936402045510452140310914
:1012500000935D0210935E0220935F023093600260
:1012600082E090E090935C0280935B020E94F60320
:1012700060935702709358028093590290935A02D8
:101280008091CF028F3F39F58091C90288608093A9
:10129000C90282E08093CD021092CE028BE39DE0E2
:1012A0000197F1F740E06091B90285EB92E00E946E
:1012B0000F0540E06091BB0285EB92E00E940F05B4
:1012C0006091BA026F3F09F4B7C040E085EB92E04D
:1012D0000E940F05B1C0109243011092420110927A
:1012E000AC011092AB010E94B1071092D0020E9493
:1012F000B1078091D00280620E94ED0080E00E94E0
:101300004C048FEF0E944C040E94F7008091D002A1
:1013100080620E94ED0081E00E944C048FEF0E94E9
:101320004C040E94F70041E068E080ED92E00E94EA
:10133000A20441E066E080ED92E00E94A20441E058
:1013400067E080ED92E00E94A20440E068E080ED5A
:1013500092E00E94510440E067E080ED92E00E943C
:10136000510440E066E080ED92E00E9451046091FB
:10137000BA02662329F041E080ED92E00E94ED047C
:1013800041E06091B90280ED92E00E94ED0441E0FD
:101390006091BB0280ED92E00E94ED04CCEBD2E0C4
:1013A0001C2F1C5F699141E080ED92E00E94ED04EA
:1013B0001C13F8CFC4ECD2E0FC2EB5E0FB0E40E0ED
:1013C000688180ED92E00E94ED041991103188F55A
:1013D000183018F018500DE001C00CE08091D002D8
:1013E00080620E94ED00802F0E944C040E94F70052
:1013F0008091D002806261E070E090E00E94540130
:101400008BE492E00E94B902E82E8091D0028062C3
:101410000E94ED00802F0E944C0421E030E0C901C1
:1014200001C0880F1A95EAF78E290E944C040E9489
:10143000F700FC12C4CF28CF8091C90284FD21C0DF
:1014400063E085EB92E00E9437050BE416E4C801E7
:101450000197F1F763E085EB92E00E943705C80140
:101460000197F1F763E085EB92E00E94370583E591
:1014700092E00197F1F762E085EB92E00E94370578
:1014800015C080620E94E4008BE496E40197F1F7B6
:101490008091C90280620E94E40083E592E0019796
:1014A000F1F78091C90280620E94E4008091C90234
:1014B00080620E94E40084E08093CA028CE00E9473
:1014C000E40081E00E94E4008BE39FE10197F1F7E3
:1014D00082E08093CB0286E00E94E4008091CA0201
:1014E000982F91609093CA0289600E94E4000E9444
:1014F000EA000E94EA000E942102FBCF97FB072E20
:1015000016F4009407D077FD09D00E94920A07FCD8
:1015100005D03EF4909581959F4F08957095619503
:101520007F4F0895AA1BBB1B51E107C0AA1FBB1F19
:10153000A617B70710F0A61BB70B881F991F5A955F
:10154000A9F780959095BC01CD010895EE0FFF1F7E
:101550000590F491E02D099481E090E0F8940C94CA
:06156000B10AF894FFCF70
:10156600000000008D03AF00E401D4031502F3016F
:101576000702000000000503D5023503A902CD02CB
:10158600B902AA02000000007D06AF00350334034D
:10159600564D4450565F317C315F564D4450560D82
:0215A6000A0039
:107E0000112484B714BE81FFF0D085E080938100F7
:107E100082E08093C00088E18093C10086E0809377
:107E2000C20080E18093C4008EE0C9D0259A86E02C
:107E300020E33CEF91E0309385002093840096BBD3
:107E4000B09BFECF1D9AA8958150A9F7CC24DD24C4
:107E500088248394B5E0AB2EA1E19A2EF3E0BF2EE7
:107E6000A2D0813461F49FD0082FAFD0023811F036
:107E7000013811F484E001C083E08DD089C08234E0
:107E800011F484E103C0853419F485E0A6D080C0E4
:107E9000853579F488D0E82EFF2485D0082F10E0AE
:107EA000102F00270E291F29000F111F8ED06801E7
:107EB0006FC0863521F484E090D080E0DECF843638
:107EC00009F040C070D06FD0082F6DD080E0C81688
:107ED00080E7D80618F4F601B7BEE895C0E0D1E017
:107EE00062D089930C17E1F7F0E0CF16F0E7DF06D8
:107EF00018F0F601B7BEE89568D007B600FCFDCFD4
:107F0000A601A0E0B1E02C9130E011968C91119780
:107F100090E0982F8827822B932B1296FA010C0160
:107F200087BEE89511244E5F5F4FF1E0A038BF0790
:107F300051F7F601A7BEE89507B600FCFDCF97BE46
:107F4000E89526C08437B1F42ED02DD0F82E2BD052
:107F50003CD0F601EF2C8F010F5F1F4F84911BD097
:107F6000EA94F801C1F70894C11CD11CFA94CF0C13
:107F7000D11C0EC0853739F428D08EE10CD085E9AC
:107F80000AD08FE07ACF813511F488E018D01DD067
:107F900080E101D065CF982F8091C00085FFFCCF94
:107FA0009093C60008958091C00087FFFCCF809118
:107FB000C00084FD01C0A8958091C6000895E0E648
:107FC000F0E098E1908380830895EDDF803219F02E
:107FD00088E0F5DFFFCF84E1DECF1F93182FE3DFCA
:107FE0001150E9F7F2DF1F91089580E0E8DFEE27F6
:047FF000FF270994CA
:027FFE00040479
:0400000300007E007B
:00000001FF