:100000000C945D000C9485000C9485000C94850084
:100010000C9485000C9485000C9485000C9485004C
:100020000C9485000C9485000C9485000C9485003C
:100030000C9485000C9485000C9485000C9485002C
:100040000C9454060C9485000C944F0D0C94290DBF
:100050000C9485000C9485000C9485000C9485000C
:100060000C948F0A0C948500000000080002010027
:100070000003040700000000000000000000000072
:10008000250028002B0000000000240027002A0083
:10009000040404040404040402020202020203032E
:1000A0000303030301020408102040800102040836
:1000B0001020010204081020331311241FBECFEFBB
:1000C000D8E0DEBFCDBF24E0ACE5B2E001C01D92B8
:1000D000AF30B207E1F712E0A0E0B1E0E8EEFCE2F9
:1000E00002C005900D92AC35B107D9F710E0CDE50F
:1000F000D0E004C02197FE010E946014CC35D107E6
:10010000C9F70E94BA100C9472160C94000008955E
:10011000E091D6028091D502E81730F4F0E0E95280
:10012000FD4F808190E008958FEF9FEF08959091AB
:10013000D6028091D502981750F4E92FF0E0E952E9
:10014000FD4F208130E09F5F9093D60202C02FEFD9
:100150003FEFC90108958091D50290E02091D60229
:10016000821B91090895089580E090E0089510920F
:100170001D0381E080931C031092F70261E082E18D
:100180000E94E30561E083E10E94E305E9EBF0E012
:1001900080818E7F808380818D7F808388E48093BF
:1001A000B80085E48093BC000895CF92DF92EF926F
:1001B000FF920F931F93CF93DF937C01262F972FEE
:1001C0008A0180914003882391F0C62FD72F6E01BA
:1001D000C40ED51ECC15DD0571F06991D701ED91E6
:1001E000FC910190F081E02DC7010995F3CF642FB8
:1001F000822F0E94BD0BC801DF91CF911F910F91FB
:10020000FF90EF90DF90CF900895CF93DF931F92F0
:10021000CDB7DEB76983209140032223D1F020912E
:100220003E03203240F021E030E0FC0133832283A2
:1002300080E090E015C080913F03E82FF0E0E25E9F
:10024000FC4F998190838F5F80933F0380933E039F
:1002500005C061E0CE0101960E94BD0B81E090E0F7
:100260000F90DF91CF9108950F931F93CF93DF935A
:1002700000D000D000D0CDB7DEB78C0160E080E0C8
:100280000E94580E6BE571E08EEE93E00E94270D00
:100290001A8219821C821B821E821D82F8016081D3
:1002A00071816115710531F044815581CE0101964E
:1002B0000E94B60C61E080E00E94580E809100011F
:1002C000882379F06CE671E08EEE93E00E94270DB2
:1002D0004D815E8169817A818EEE93E00E94E50B0B
:1002E00006C064E771E08EEE93E00E94270D8981DD
:1002F0009A810E94FB1426960FB6F894DEBF0FBEBB
:10030000CDBFDF91CF911F910F910895CF92DF92D2
:10031000EF92FF92CF931092C2020E94F20E60E021
:1003200080E00E94580E66EA71E08EEE93E00E9433
:10033000270DC090EA03D090EB03E090EC03F0901F
:10034000ED0360E08BE00E94580EC701B6010E94E9
:100350008C098091CF0290E00A9734F469E771E04C
:100360008EEE93E00E94270DC701B6010E948C0912
:100370006091CF0270E08EEE93E00E941A0F6BE75F
:1003800071E08EEE93E00E94270DC701B6010E9436
:100390008C098091CE0290E00A9734F469E771E00D
:1003A0008EEE93E00E94270DC701B6010E948C09D2
:1003B0006091CE0270E08EEE93E00E941A0FC09121
:1003C000C10261E080E00E94580E6DE771E08EEEA0
:1003D00093E00E94270DC130A9F04CF4C11128C050
:1003E00061E082E00E94580E6FE771E018C0C230F1
:1003F00081F0C330E9F461E082E00E94580E60EAC7
:1004000071E00DC061E082E00E94580E6AE871E080
:1004100006C061E082E00E94580E65E971E08EEE50
:1004200093E0CF91FF90EF90DF90CF900C94270D49
:10043000CF91FF90EF90DF90CF9008950F931F938F
:10044000CF93DF938C01FC01C18160E080E00E94CA
:10045000580EC13039F0C23041F0C1110CC06BEA06
:1004600071E005C06EEA71E002C061EB71E08EEEF2
:1004700093E00E94270DF801C28160E082E00E94B3
:10048000580EC23091F03CF4CC2361F0C130B1F48D
:1004900067EB71E00FC0C33059F0C43079F460EC01
:1004A00071E008C064EB71E005C06AEB71E002C066
:1004B0006DEB71E08EEE93E00E94270DF801C08194
:1004C00060E084E00E94580EC13039F0C23041F043
:1004D000C1110CC06AE572E005C064EC71E002C0B5
:1004E00063EC71E08EEE93E00E94270D60E086E001
:1004F0000E94580EF801C381D4810581168160E005
:100500008BE00E94580EF80109950A9734F469E7C8
:1005100071E08EEE93E00E94270DF8010995BC0171
:100520008EEE93E00E941A0F6BE771E08EEE93E07F
:100530000E94270DFE0109950A9734F469E771E0DE
:100540008EEE93E00E94270DFE010995BC018EEE10
:1005500093E0DF91CF911F910F910C941A0FCF92DE
:10056000DF92EF92FF92CF93DF936B017C01FB014F
:100570000995EC01F70109954CE39C01429FC001EC
:10058000439F900D11248C0F9D1FDF91CF91FF9001
:10059000EF90DF90CF9008950F931F93CF93DF9349
:1005A000CDB7DEB727970FB6F894DEBF0FBECDBF2D
:1005B000182F61E080E00E94580E123081F1133054
:1005C00071F0113009F06EC08091C7029091C502A0
:1005D0001916A4F5843094F56DE771E031C087E019
:1005E000E5ECF2E0DE01119601900D928A95E1F7BB
:1005F0000091C6021091C7028091C5028130C1F5F9
:100600006C817D818E819F810E94AF02839784F1EE
:10061000101674F5133064F16DE771E02BC0909102
:10062000C6028091C7022091C502121674F592305D
:1006300064F5823054F16DE771E029C065ED71E039
:100640008EEE93E00E94270D61E082E00E94580E3A
:1006500066EC71E08EEE93E027960FB6F894DEBF5D
:100660000FBECDBFDF91CF911F910F910C94270D3D
:1006700065ED71E08EEE93E00E94270D61E082E06F
:100680000E94580E6BEC71E0E5CF65ED71E08EEEE7
:1006900093E00E94270D61E082E00E94580E60ED19
:1006A00071E0D8CF27960FB6F894DEBF0FBECDBF4E
:1006B000DF91CF911F910F91089581E08093C40243
:1006C0006091EA037091EB038091EC039091ED034C
:1006D0000E94D50887E00E94FA0E0E94F20E85EC77
:1006E00092E00E941E02809102010C94CC021092B2
:1006F000C0020E94F20E60E080E00E94580E67ED9A
:1007000071E08EEE93E00E94270D61E080E00E9490
:10071000580E66EE71E08EEE93E00C94270DCF92AA
:10072000DF92EF92FF92CF93DF93CDB7DEB72A9798
:100730000FB6F894DEBF0FBECDBF81E090E00E94FF
:100740009713282F82E090E02A870E949713382F72
:1007500083E090E039870E949713482F84E090E06F
:1007600048870E949F136B017C0188E090E00E9403
:100770009F13DC01CB01B6010E94840E6FE77AE083
:100780007D836C83E7E8FAE0FF83EE83562F6D816B
:100790007E2F2A85398548858F8190E02A960FB66D
:1007A000F894DEBF0FBECDBFDF91CF91FF90EF90E9
:1007B000DF90CF90089591E09093C402882389F050
:1007C0000E948F032093C5023093C6024093C70254
:1007D0005093C8026093C9027093CA028093CB02FF
:1007E0000FC087E0E9E0F1E0A5ECB2E001900D92E6
:1007F0008A95E1F760E070E080E090E00E94840E6E
:100800000E94F20E0E94D00F809102010E94CC0241
:1008100061E080E00C94580E1092C0021092C40265
:100820001092CD021092CC021092C30281E080930C
:1008300002011092C2021092C10280930001089539
:10084000EF92FF920F931F93CF93DF930E940C04BC
:10085000E0915103F091520382E08083E0914D03D7
:10086000F0914E031082E0914F03F091500380E12C
:10087000808310925903E0915503F091560386E06E
:100880008083E0915303F0915403808180618083E1
:10089000E0915303F0915403808188608083E0915C
:1008A0005303F0915403808180688083E091530367
:1008B000F091540380818F7D8083809108048F3F65
:1008C00039F58091020488608093020482E080936D
:1008D0000604109207048BE39DE00197F1F740E0D6
:1008E0006091F2038EEE93E00E94610740E0609118
:1008F000F4038EEE93E00E9461076091F3036F3F73
:1009000009F4B0C040E08EEE93E00E946107AAC0F7
:100910001092D6021092D50210923F0310923E031D
:100920000E94B700109209041092D6021092D502CC
:1009300010923F0310923E030E94B7008091090479
:1009400080620E94810D80E00E949E068FEF0E94CF
:100950009E060E948B0D8091090480620E94810D89
:1009600081E00E949E068FEF0E949E060E948B0DE2
:1009700041E068E089E094E00E94F40641E066E02E
:1009800089E094E00E94F40641E067E089E094E0A9
:100990000E94F40687E00E94FA0E6091F30366233A
:1009A00029F041E089E094E00E943F0741E0609136
:1009B000F20389E094E00E943F0741E06091F40374
:1009C00089E094E00E943F07C5EFD3E01C2F1C5F35
:1009D000699141E089E094E00E943F071C13F8CF41
:1009E000CDEFD3E0FC2E85E0F80E40E0688189E091
:1009F00094E00E943F071991103188F5183018F0E3
:100A000018500DE001C00CE08091090480620E9442
:100A1000810D802F0E949E060E948B0D80910904FB
:100A2000806261E070E090E00E94E80D8EED93E05E
:100A30000E949700E82E8091090480620E94810D37
:100A4000802F0E949E0621E030E0C90101C0880F7E
:100A50001A95EAF78E290E949E060E948B0DFC12C1
:100A6000C4CF2FCF8091020484FD20C063E08EEEBE
:100A700093E00E948907CBE4D6E4CE010197F1F719
:100A800063E08EEE93E00E9489072197F1F763E01F
:100A90008EEE93E00E94890783E592E00197F1F7DB
:100AA00062E08EEE93E00E94890715C080620E948A
:100AB000520E8BE496E40197F1F780910204806274
:100AC0000E94520E83E592E00197F1F780910204B3
:100AD00080620E94520E8091020480620E94520E37
:100AE00084E0809303048CE00E94520E0E94F20E78
:100AF00082E08093040486E00E94520E80910304F9
:100B00008E7F8093030488600E94520E80E090E004
:100B10000E949713882351F0813019F480930101CA
:100B200007C060E080E090E00E94A51310920101F0
:100B30001092C402DF91CF911F910F91FF90EF901F
:100B40000C947703FC01918D228D892F90E0805CBD
:100B50009F4F821B91098F739927089580E090E041
:100B6000892B29F00E94430C81110C9400000895F8
:100B700085ED8093BC008091BC0084FDFCCF109279
:100B80001D030895FC01848DDF01A80FB11DA35A38
:100B9000BF4F2C91848D90E001968F739927848F9D
:100BA000A689B7892C93A089B1898C9180648C9394
:100BB000938D848D981306C00288F389E02D80817F
:100BC0008F7D8083089590E0FC01E859FF4F3491B8
:100BD000FC01EC55FF4F2491FC01E057FF4FE491DD
:100BE000EE2309F43BC0332339F1333091F038F46C
:100BF0003130A9F0323001F584B58F7D12C0373025
:100C000091F03830A1F03430B9F4809180008F7DBC
:100C100003C0809180008F77809380000DC084B5E1
:100C20008F7784BD09C08091B0008F7703C0809119
:100C3000B0008F7D8093B000F0E0EE0FFF1FE4580E
:100C4000FF4FA591B4918FB7F894EC91611103C057
:100C500020952E2301C02E2B2C938FBF08953FB7D4
:100C6000F8948091BC029091BD02A091BE02B09117
:100C7000BF0226B5A89B05C02F3F19F00196A11D04
:100C8000B11D3FBFBA2FA92F982F8827820F911D22
:100C9000A11DB11DBC01CD0142E0660F771F881F69
:100CA000991F4A95D1F708951F920F920FB60F9290
:100CB00011242F933F938F939F93AF93BF93809172
:100CC000B8029091B902A091BA02B091BB023091E2
:100CD000B70223E0230F2D3720F40196A11DB11D8B
:100CE00005C026E8230F0296A11DB11D2093B7026F
:100CF0008093B8029093B902A093BA02B093BB025A
:100D00008091BC029091BD02A091BE02B091BF0241
:100D10000196A11DB11D8093BC029093BD02A093CA
:100D2000BE02B093BF02BF91AF919F918F913F914F
:100D30002F910F900FBE0F901F901895682F8EED7A
:100D400093E00C940501EF92FF920F931F93CF93C2
:100D5000DF9300D0CDB7DEB77C01162F683020F0CE
:100D6000185095E103E102C094E102E1F7018081AE
:100D700080624A8399830E94810D9981892F0E9404
:100D80009E060E948B0DF7019081892F806261E0A1
:100D900070E090E00E94E80D8EED93E00E949700D5
:100DA0004A8121E030E001C0220F1A95EAF7413074
:100DB00019F4122F182B03C02095122F1823F701B6
:100DC000808180620E94810D802F0E949E06812F6B
:100DD0000E949E060F900F90DF91CF911F910F916F
:100DE000FF90EF900C948B0DEF92FF920F931F9357
:100DF000CF93DF931F92CDB7DEB77C01162F6830FB
:100E000018F0185001E001C000E0F7018081806215
:100E100049830E94810D802F0E949E060E948B0DA7
:100E2000F7018081806261E070E090E00E94E80D4F
:100E30008EED93E00E949700498121E030E001C0EF
:100E4000220F1A95EAF7411103C0122F182B03C085
:100E50002095122F1823F701808180620E94810D56
:100E6000802F0E949E06812F0E949E060F90DF9188
:100E7000CF911F910F91FF90EF900C948B0D6031EB
:100E800010F40C94F4060895CF93DF9300D0CDB7FF
:100E9000DEB7FC018081806269837A830E94810DC4
:100EA00082E10E949E066981862F0E949E067A81B9
:100EB000872F0E949E060F900F90DF91CF910C9488
:100EC0008B0DFC01962F828D8F3F31F0603140F405
:100ED000CF014B960C94A306642F892F0C94E30545
:100EE0000895CF93DF93EC0140E06E810E9461078B
:100EF00041E06E81CE010E94610740E06E81CE012B
:100F00000E9461078BE891E00197F1F7DF91CF91A3
:100F100008958F929F92AF92BF92CF92DF92EF92FD
:100F2000FF920F931F93CF93DF93EC018A8D8E0175
:100F3000095F1F4FC62ED12C8F3F09F483C07E015D
:100F40008BE1E80EF11C8B8D80620E94810D82E1A5
:100F50000E949E060E948B0D8B8D806262E070E085
:100F600090E00E94E80D8EED93E00E949700B82E6D
:100F70008EED93E00E949700982F88279C012B29E3
:100F8000F801A0E0B0E061E070E0B19001E010E0B5
:100F9000CB010B2C02C0880F991F0A94E2F78095B1
:100FA000909528233923A6010A2E02C0559547950E
:100FB0000A94E2F74170552702C0440F551FBA94B6
:100FC000E2F7242B352B1196A430B105F1F6680118
:100FD0000E8002C0CC0CDD1C0A94E2F7C094D094C1
:100FE000C222D322B601C7010E944407B8010E8075
:100FF00002C0660F771F0A94E2F7C62AD72AB60105
:10100000C7010E9444070E8002C0000F111F0A94FE
:10101000E2F700951095B60160237123C7010E9485
:1010200044078BE891E00197F1F7DF91CF911F9191
:101030000F91FF90EF90DF90CF90BF90AF909F9077
:101040008F900895E12CF12C4E01EBE18E0E911C56
:101050005801F80180819A8D9F3F31F041E0682F5F
:10106000C4010E943F0702C00E94330E0F5F1F4F52
:10107000A6010E2C02C0559547950A94E2F74170DF
:10108000F5016081CE010E946107FFEFEF1AFF0AB0
:1010900084E0E816F104E1F6CE01DF91CF911F91D3
:1010A0000F91FF90EF90DF90CF90BF90AF909F9007
:1010B0008F900C9471078F929F92AF92BF92CF92B4
:1010C000DF92EF92FF920F931F93CF93DF93EC0188
:1010D000F62E6C810E9461076D816F3F21F040E028
:1010E000CE010E9461078C890F2D10E084FF3EC065
:1010F0006E0187E0C80ED11CE12CF12C4E01EBE112
:101100008E0E911C5601F60180819A8D9F3F31F021
:1011100041E0682FC4010E943F0702C00E94330EC5
:10112000FFEFCF1ADF0AA8010E2C02C05595479594
:101130000A94E2F74170F5016081CE010E946107D7
:10114000FFEFEF1AFF0A88E0E816F104D9F6CE01A6
:10115000DF91CF911F910F91FF90EF90DF90CF9093
:10116000BF90AF909F908F900C947107B80184E06E
:10117000759567958A95E1F7CE010E9489076F2DD5
:10118000CE01DF91CF911F910F91FF90EF90DF90F3
:10119000CF90BF90AF909F908F900C94890741E0C3
:1011A0000E945B0881E090E008956093B302709321
:1011B000B4028093B5029093B602DC01CB01845D4A
:1011C0009E4FAF4FBF4F8093AF029093B002A0935A
:1011D000B102B093B20282E090E09093AE028093AD
:1011E000AD022FB7F8948091B8029091B902A09106
:1011F000BA02B091BB022FBF8093A9029093AA02BA
:10120000A093AB02B093AC0208950F931F938FB7D6
:10121000F8940091B8021091B9022091BA0230916D
:10122000BB028FBF4091A9025091AA026091AB020C
:101230007091AC02041B150B260B370B8091B30287
:101240009091B402A091B502B091B602083E13404D
:1012500021053105C0F00196A11DB11D8093B30297
:101260009093B402A093B502B093B60248515C4F7C
:101270006F4F7F4F4093A9025093AA026093AB0235
:101280007093AC02C4CF4091AF025091B002609114
:10129000B1027091B20284179507A607B70788F1CB
:1012A000E091A702F091A802309759F109956115D4
:1012B00071058105910519F00E94D50822C0809121
:1012C000B3029091B402A091B502B091B602845DD0
:1012D0009E4FAF4FBF4F8093AF029093B002A09349
:1012E000B102B093B20281E090E02091AD02309162
:1012F000AE02232B11F480E090E09093AE02809335
:10130000AD026091B3027091B4028091B5029091E8
:10131000B6021F910F9108954F925F926F927F9244
:101320008F929F92AF92BF92CF92DF92EF92FF92F5
:101330000F931F93CF93DF934B015C018091A30226
:101340009091A402A091A502B091A60288169906D8
:10135000AA06BB0609F4C2C08CE3C82ED12CE12C2E
:10136000F12CC501B401A70196010E942A146093D3
:10137000CE02CA01B901A70196010E942A14609306
:10138000CF02CA01B90128E130E040E050E00E94FC
:101390002A1469017A016093D002CA01B9016C5F15
:1013A0007F4F8F4F9F4F27E030E040E050E00E949A
:1013B0002A146F5F6093D102412C512C320140E01E
:1013C00004E610E0C0E9D1E0242F30E02E54384F7D
:1013D000F901E370FF27309789F4C901B8010E9431
:1013E0001614892B31F4C901BE010E941614892BF1
:1013F00029F48EE691E0A0E0B0E004C08DE691E033
:10140000A0E0B0E0480E591E6A1E7B1ED301C20147
:10141000AA27BB27C816D906EA06FB0610F04F5FBD
:10142000D3CF4093D402309799F4C90164E670E0B9
:101430000E941614892B39F4C90160E971E00E94F9
:101440001614892B29F48EE691E0A0E0B0E004C0E8
:101450008DE691E0A0E0B0E0481A590A6A0A7B0ADA
:10146000C418D508E608F708C90164E670E00E94D0
:101470001614EC01C90160E971E00E941614AFE195
:10148000B1E020E0213039F4309749F4209729F475
:10149000009729F402C04C9103C04DE101C04CE11A
:1014A00050E060E070E0C416D506E606F70640F0AE
:1014B000C41AD50AE60AF70A2F5F11962C3011F7E5
:1014C0002F5F2093D302C394C092D2028092A302D2
:1014D0009092A402A092A502B092A602DF91CF91B1
:1014E0001F910F91FF90EF90DF90CF90BF90AF9042
:1014F0009F908F907F906F905F904F9008950E9483
:1015000005090E948C098091CE0290E008950E9406
:1015100005090E948C098091CF0290E008951F92E6
:101520000F920FB60F9211242F933F934F935F9317
:101530006F937F938F939F93AF93BF93EF93FF939B
:101540008091B900887F803609F49CC068F58832A4
:1015500009F45BC090F4803109F454C038F4882356
:1015600009F4F6C0883009F44DC0F6C0883109F49A
:101570004CC0803209F45DC0EFC0803409F468C00B
:1015800048F4803309F455C0883309F0E5C08093EE
:101590001B03D8C0803509F44FC0883509F45DC0FD
:1015A000883409F0D9C0D6C0883909F4C7C0A8F476
:1015B000883709F467C038F4883609F463C0803787
:1015C00009F460C0C9C0883809F4B8C0803909F48A
:1015D0005FC0803809F0C0C05BC0803B09F486C0A2
:1015E00038F4803A09F466C0883A09F47FC0B4C080
:1015F000803C09F4A7C0883C09F4A4C0883B09F4E6
:101600008AC0AAC08091F80210C090911A038091FC
:101610001903981770F5E0911A0381E08E0F8093FB
:101620001A03F0E0E750FD4F80818093BB0085EC0A
:1016300086C080931B038EC0E0911A0381E08E0F59
:1016400080931A038091BB00F0E0E750FD4F808348
:1016500090911A03809119036EC0E0911A0381E002
:101660008E0F80931A038091BB00F0E0E750FD4F8E
:10167000808380911C0381116DC081E08093F7020B
:1016800084EA61C083E080931D031092A202CFCF51
:101690008091A202803208F051C0E091A20281E064
:1016A0008E0F8093A2028091BB00F0E0EE57FD4FB9
:1016B0008083BDCF85EC8093BC0010921D03809188
:1016C000A202803230F4E091A202F0E0EE57FD4F2A
:1016D00010826091A20270E0E0918002F09181029C
:1016E00082E892E009951092A20236C084E08093CD
:1016F0001D0310927F0210927E02E0917C02F09115
:101700007D02099580917E02811105C081E0809360
:101710007E0210925C02E0917F0281E08E0F809346
:101720007F02F0E0E45AFD4F80818093BB009091EE
:101730007F0280917E02981708F479CF85E8809324
:10174000BC000AC085EC8093BC0010921D0304C04D
:1017500010921B030E94B805FF91EF91BF91AF91CA
:101760009F918F917F916F915F914F913F912F91B9
:101770000F900FBE0F901F90189540917E02262F5C
:1017800030E0240F311D21323105DCF420911D039E
:101790002430C9F4FC0180E090E0861758F43091C1
:1017A0007E022191DC01A45ABD4FA30FB11D2C93E1
:1017B0000196F3CF80917E02680F60937E0280E0F5
:1017C000089581E0089582E00895CF92DF92EF922C
:1017D000FF920F931F93CF93DF936C017A018B01DC
:1017E000C0E0D0E0CE15DF0589F0D8016D918D0104
:1017F000D601ED91FC910190F081E02DC601099593
:10180000892B11F47E0102C02196ECCFC701DF9134
:10181000CF911F910F91FF90EF90DF90CF9008959F
:10182000FC01538D448D252F30E0842F90E0821BE6
:10183000930B541710F0CF96089501970895FC016B
:10184000918D828D981761F0828DDF01A80FB11DF7
:101850005D968C91928D9F5F9F73928F90E008951B
:101860008FEF9FEF0895FC01918D828D981731F0D5
:10187000828DE80FF11D858D90E008958FEF9FEF29
:1018800008950E945D1681E493E00E94A20521E084
:10189000892B09F420E0822F0895EF92FF920F9395
:1018A0001F93CF93DF93EC0181E0888F9B8D8C8D0C
:1018B000981305C0E889F989808185FD24C0F62E3A
:1018C0000B8D10E00F5F1F4F0F731127E02E8C8DD3
:1018D000E8120CC00FB607FCFACFE889F9898081BD
:1018E00085FFF5CFCE010E94C205F1CF8B8DFE01A1
:1018F000E80FF11DE35AFF4FF0820B8FEA89FB8955
:101900008081806207C0EE89FF896083E889F98958
:1019100080818064808381E090E0DF91CF911F918E
:101920000F91FF90EF900895CF93DF93EC01888D96
:101930008823C9F0EA89FB89808185FD05C0A889D3
:10194000B9898C9186FD0FC00FB607FCF5CF808159
:1019500085FFF2CFA889B9898C9185FFEDCFCE01A3
:101960000E94C205E7CFDF91CF910895EF92FF92D9
:101970000F931F93CF93DF93EC017B018A01888142
:101980009981009729F02A813B8124173507F8F4C3
:10199000B8016F5F7F4F0E949315009759F09983AC
:1019A00088831B830A832C813D81232B81F4FC01D6
:1019B00010820DC088819981009711F00E94FB145C
:1019C000198218821D821C821B821A8207C01D8305
:1019D0000C83B701888199810E946B16CE01DF913B
:1019E000CF911F910F91FF90EF900895FC0111820C
:1019F000108213821282158214826115710551F0D2
:101A0000FB0101900020E9F73197AF01461B570B0E
:101A10000C94B60C0895DC01ED91FC910190F081DD
:101A2000E02D09946115710579F0FB01019000200A
:101A3000E9F73197AF01461B570BDC01ED91FC91A3
:101A40000280F381E02D099480E090E008950C94E9
:101A5000120D1F920F920FB60F9211242F933F93E6
:101A60004F935F936F937F938F939F93AF93BF93A6
:101A7000EF93FF9381E493E00E94C205FF91EF9101
:101A8000BF91AF919F918F917F916F915F914F9196
:101A90003F912F910F900FBE0F901F9018951F929E
:101AA0000F920FB60F9211242F938F939F93EF9362
:101AB000FF93E0915103F09152038081E09157032D
:101AC000F091580382FD12C0908180915A038F5F7C
:101AD0008F7320915B03821751F0E0915A03F0E07D
:101AE000EF5BFC4F958F80935A0301C08081FF917B
:101AF000EF919F918F912F910F900FBE0F901F909C
:101B0000189591E09093400380930A0410923F034C
:101B100010923E03089520913E0390910A042132D1
:101B200008F04AC080911D038111FCCF32E0309350
:101B30001D0331E030931C033FEF30931B031092E1
:101B40001A0320931903AEE1B3E049EF52E0FA0122
:101B50003E2F341B321718F43D913193F9CF109278
:101B6000F8022091F802990F922B9093F80290912D
:101B7000F702913061F41092F7029091F80290937D
:101B8000BB009091BC0093FDF8CF95EC01C095EEA1
:101B90009093BC0090911D039230E1F390911B0350
:101BA0009F3F79F080911B03803241F080911B03AD
:101BB000803331F084E005C081E003C082E001C0E1
:101BC00083E010923F0310923E0310924003089569
:101BD00090911D039111FCCF613208F060E291E019
:101BE00090931D0390931C032FEF20931B031092DF
:101BF0001A03260F209319039093F8029091F8028C
:101C0000880F892B8093F8028091F702813061F46C
:101C10001092F7028091F8028093BB008091BC0083
:101C200083FDF8CF85EC01C085EE8093BC008091E8
:101C30001D038130E1F380911A03861710F460913F
:101C40001A03A9EFB2E027ED32E0F9018E2F821BD3
:101C5000861718F48D918193F9CF1092D602609374
:101C6000D502862F089590E0FC01EC55FF4F24919A
:101C7000FC01E057FF4F8491882399F090E0880F92
:101C8000991FFC01EA57FF4FA591B491FC01E4585C
:101C9000FF4F859194918FB7F894EC91E22BEC93E0
:101CA0008FBF089540E0682F8EEE93E00C945B08A0
:101CB000CF93DF93CDB7DEB728970FB6F894DEBF8A
:101CC0000FBECDBF98E0E7E1F1E0DE011196019093
:101CD0000D929A95E1F790910604961710F46FEF24
:101CE000690FFE013196E60FF11DE60FF11D90819F
:101CF000890F806828960FB6F894DEBF0FBECDBF5F
:101D0000DF91CF910C94520E8F929F92AF92BF921F
:101D1000CF92DF92EF92FF920F931F93CF93DF93B7
:101D2000282FC62E8EE18093D4021092D3021092F7
:101D3000D2021092D0022093CF026093CE02E2EB47
:101D4000F7E0812C89E0982E84E6A82E88E3B82E4F
:101D5000C4E6D0E000E911E0CF0183709927892B18
:101D600099F4CF01BE010E941614892B31F4CF01E2
:101D7000B8010E941614892B39F480E8880E81E599
:101D8000981E81E0A81EB11C3196E03D87E0F8075F
:101D900019F7D12CE12CF12C80E8C81A81E5D80A7A
:101DA00081E0E80AF10830E0ACE3B0E00E940714FB
:101DB000DC01CB018C0D9D1DAE1DBF1DBC01CD01F5
:101DC000680D791D8A1D9B1DDF91CF911F910F9189
:101DD000FF90EF90DF90CF90BF90AF909F908F904B
:101DE0000C94D50881E00E94520E8BE39FE101978D
:101DF000F1F70895CF93DF93D82FC1E082FB4427FA
:101E000040F94C2768E089E094E00E94A306D1FBEA
:101E1000442740F94C2767E089E094E00E94A3063C
:101E20004D2F41704C2766E089E094E0DF91CF911F
:101E30000C94A3064F925F926F927F928F929F9223
:101E4000AF92BF92CF92DF92EF92FF920F931F93C8
:101E5000CF93DF93CDB7DEB7A1970FB6F894DEBF6F
:101E60000FBECDBF8C016B01770FEE08FF08F7FEA8
:101E70002AC06DE20E940B0D5C0122273327A901C5
:101E80002C193D094E095F0919A2CE0181967C01EA
:101E90009AE0492E512C612C712CCA01B901A30181
:101EA00092010E942A14605DF70162937F0121155F
:101EB00031054105510589F7BF01C8010E94120D86
:101EC0008A0D9B1D1EC0A701960119A2CE01819605
:101ED0007C018AE0882E912CA12CB12CCA01B90179
:101EE000A50194010E942A14605DF70162937F01AD
:101EF000211531054105510589F7BF01C8010E942F
:101F0000120DA1960FB6F894DEBF0FBECDBFDF91C4
:101F1000CF911F910F91FF90EF90DF90CF90BF90E6
:101F2000AF909F908F907F906F905F904F900895AB
:101F30008F929F92AF92BF92CF92DF92EF92FF92D9
:101F40000E942F064B015C0180EDC82E87E0D82E41
:101F5000E12CF12C0E942F06DC01CB018819990994
:101F6000AA09BB09883E9340A105B10558F021E0BC
:101F7000C21AD108E108F10888EE880E83E0981EA5
:101F8000A11CB11CC114D104E104F10419F7FF90A4
:101F9000EF90DF90CF90BF90AF909F908F9008957B
:101FA000E091CA02F091CB020995019741F4E091CA
:101FB000C802F091C9020995CB9709F479C06091E4
:101FC000C8027091C9028091CA029091CB020E940E
:101FD000AF0201969093CD028093CC02E091C802AB
:101FE000F091C9020995BC0181E493E00E941A0FA7
:101FF00065E572E081E493E00E94270D6091C602DE
:1020000081E493E00E940B0D61E771E081E493E0CD
:102010000E94270D6091C70281E493E00E940B0D9E
:1020200068E572E081E493E00E94120D6091C802BD
:102030007091C9028091CA029091CB020E94AF02B6
:102040008530910519F421E02093C5022091C50245
:10205000121634F59C01255031091216130604F5A9
:10206000C90167E070E00E941614892B39F4809151
:10207000C60218161CF481508093C602C9016BE099
:1020800070E00E941614892B59F48091C70218162B
:102090003CF481508093C702811102C01092C602A5
:1020A00085EC92E00E941E02809102010C94CC0209
:1020B0006BE370E081E090E00E94840E8FCFCF92BE
:1020C000DF92FF920F931F93CF93DF931F92CDB7B1
:1020D000DEB7C12CD12C0FE1FC2CF601E251FC4FF4
:1020E0001785103140F5183018F0185093E101C0F1
:1020F00092E180910904806299830E94810D998107
:10210000892F0E949E060E948B0D90910904892FB1
:10211000806261E070E090E00E94E80D8EED93E057
:102120000E9497009C01332702C0359527951A9588
:10213000E2F7217001C020E030E002C0220F331F1F
:10214000FA94E2F720953095802F90E08223932334
:10215000082F2FEFC21AD20A25E0C216D10409F0C7
:10216000BBCF0F90DF91CF911F910F91FF90DF9028
:10217000CF900895CF93DF93CDB7DEB72E970FB6EC
:10218000F894DEBF0FBECDBF789484B5826084BD65
:1021900084B5816084BD85B5826085BD85B581606B
:1021A00085BD80916E00816080936E0010928100E9
:1021B00080918100826080938100809181008160A4
:1021C0008093810080918000816080938000809165
:1021D000B10084608093B1008091B00081608093F1
:1021E000B00080917A00846080937A0080917A00B8
:1021F000826080937A0080917A00816080937A0077
:1022000080917A00806880937A001092C1000E94C9
:10221000200401E087E0E82E92E0F92E24E0D22E9F
:1022200033E0C32E1091C402113009F47FC0123084
:1022300009F416C11111FAC10E945F10882309F434
:102240008CC09091C3029111EFC181FF07C08091B2
:10225000C0028150823008F0E7C130C083FF31C036
:102260008091C00281112AC0809101018823C1F0B0
:102270000093C0020E94F20E0E948F0328873987C4
:102280004A875B876C877D878E87CE0108960E9480
:102290001E0261E080E00E94580E67EF71E034C0DA
:1022A0000E94F20E60E080E00E94580E6EEF71E036
:1022B0008EEE93E00E94270D0E94980F0E947703F4
:1022C000B3C182FF26C08091C0028111F7CFF09286
:1022D000C0020E94F20EE0E1F1E0DE0118968E2DC0
:1022E00001900D928A95E1F760E070E080E090E067
:1022F0000E94840ECE0108960E941E0261E080E0DA
:102300000E94580E6DE072E08EEE93E00E94270D61
:102310008BC184FD9CCF80FF87C18091C00281303A
:1023200009F480C1823009F07FC17BC16091C8028D
:102330007091C9028091CA029091CB020E94AF02B3
:102340002091CC023091CD028217930714F00E94A5
:10235000D00F0E945F10811103C01092C30266C1AA
:102360009091C302911160C181FF0AC08091020166
:10237000833014F411E0180F10930201812F6DC106
:1023800083FF18C082E00E94FA0EF092C4020E94FD
:102390007F0A5C010E94870AB5010E94840E0E9498
:1023A00005096093EA037093EB038093EC03909329
:1023B000ED0334C182FD38C184FF0AC0809102015F
:1023C000823014F0815001C083E08093020145C146
:1023D00080FF2AC180910201823081F08330F1F0C8
:1023E000813009F021C18091C7029091C502191670
:1023F0000CF01AC184300CF41CC116C18091C602C5
:102400009091C7022091C50212160CF00DC18230C6
:102410000CF00AC192300CF017C106C1E5ECF2E0F5
:10242000DE0111968E2D01900D928A95E1F7B09004
:10243000C6021091C7028091C502813009F0F4C034
:102440006C817D818E819F810E94AF0283970CF405
:10245000EBC01B140CF0E8C013300CF4E5C000C155
:102460000E945F10882309F478CF9091C3029111E4
:10247000DBC081FF03C01092C202D6C083FD43C0FF
:1024800082FF05C08091C2028111C8C03CC084FD9A
:10249000F2CF80FFC9C08091C2028130B9F11CF433
:1024A000882351F0C1C0823009F497C0833009F00D
:1024B000BBC00E940C04B5C08091C102813069F09C
:1024C0003CF48111B1C00093C20266E172E00EC01B
:1024D000823041F08330B9F0A7C0C092C2026FE0F1
:1024E00072E004C08093C2026BE172E0CE010896F4
:1024F0000E94F60CCE0108960E94340188859985C9
:102500000E94FB1491C00E945D038EC0A090C50282
:10251000B090C6021091C70260E080E00E94580EA1
:102520000E94F20E62E272E08EEE93E00E94270DAE
:1025300061E080E090E00E94A5136A2D81E090E0C8
:102540000E94A5136B2D82E090E00E94A513612FDD
:1025500083E090E00E94A5136091EA037091EB0381
:102560008091EC039091ED030E948C094091CE0282
:1025700050E060E070E084E090E00E94B31360916E
:10258000EA037091EB038091EC039091ED030E94BC
:102590008C094091CF0250E060E070E088E090E06C
:1025A0000E94B31360E080E00E94580E0E94F20E79
:1025B0006CE272E08EEE93E00E94270D61E080E015
:1025C0000E94580E63E372E08EEE93E00E94270DA6
:1025D0000E94980F0E94200427C060E080E00E94C3
:1025E000580E0E94F20E60E472E08EEE93E00E94BC
:1025F000270D60E080E090E00E94A51360E080E09D
:102600000E94580E0E94F20E6CE472E08EEE93E08F
:102610000E94270D0E94980F1092C2020E9486010C
:1026200003C080E00E94DB030093C3020E94AE055A
:10263000F9CD833021F08F5F8093C70208C0D0921C
:10264000C7021092C60203C08F5F8093C60285EC5A
:1026500092E00E941E02809102010E94CC02E4CF0F
:10266000F092C502F4CFE1E4F3E01382128288EE27
:1026700093E0A0E0B0E084839583A683B7832FE244
:1026800031E03183208325EC30E03587248724EC4A
:1026900030E03787268720EC30E0318B208B21EC2F
:1026A00030E0338B228B22EC30E0358B248B26EC10
:1026B00030E0378B268B118E128E138E148EEEED3A
:1026C000F3E01382128284839583A683B78381E427
:1026D00091E091838083EEEEF3E01382128283E532
:1026E00091E091838083128E148A8FE084838EE040
:1026F00085838DE086838CE087838BE080878AE00A
:10270000818789E08287178681E0808B82E0818BD8
:1027100083E0828B84E0838B0E9405096093EA0347
:102720007093EB038093EC039093ED030895F99974
:10273000FECF92BD81BDF89A992780B50895A6E194
:10274000B0E044E050E00C94C213262FF999FECF7C
:102750001FBA92BD81BD20BD0FB6F894FA9AF99ABE
:102760000FBE01960895242F0E94A613252F0E94C4
:10277000A6130C94BB130E94A513272F0C94A61329
:10278000DC01CB01FC01F999FECF06C0F2BDE1BD31
:10279000F89A319600B40D9241505040B8F7089520
:1027A0002F923F924F925F926F927F928F929F9261
:1027B000AF92BF92CF92DF92EF92FF920F931F934F
:1027C000CF93DF93CDB7DEB7CA1BDB0B0FB6F89400
:1027D000DEBF0FBECDBF09942A88398848885F8440
:1027E0006E847D848C849B84AA84B984C884DF80B1
:1027F000EE80FD800C811B81AA81B981CE0FD11D95
:102800000FB6F894DEBF0FBECDBFED010895A29FB5
:10281000B001B39FC001A39F700D811D1124911DB4
:10282000B29F700D811D1124911D089597FB072EF5
:1028300016F4009407D077FD09D00E944C1407FCD1
:1028400005D03EF4909581959F4F089570956195C0
:102850007F4F0895A1E21A2EAA1BBB1BFD010DC0DC
:10286000AA1FBB1FEE1FFF1FA217B307E407F50740
:1028700020F0A21BB30BE40BF50B661F771F881F1C
:10288000991F1A9469F760957095809590959B01B2
:10289000AC01BD01CF010895AA1BBB1B51E107C0CC
:1028A000AA1FBB1FA617B70710F0A61BB70B881FE0
:1028B000991F5A95A9F780959095BC01CD0108956F
:1028C000EE0FFF1F0590F491E02D0994CF93DF9355
:1028D0008230910510F482E090E0E0910D04F091D7
:1028E0000E0420E030E0C0E0D0E0309711F14081EC
:1028F000518148175907C0F04817590761F4828180
:102900009381209719F09B838A832BC090930E04A8
:1029100080930D0426C02115310519F04217530785
:1029200018F49A01BE01DF01EF010280F381E02D6E
:10293000DCCF2115310509F1281B390B2430310575
:1029400090F412968D919C9113976115710521F069
:10295000FB019383828304C090930E0480930D0443
:10296000FD01329644C0FD01E20FF31F8193919364
:10297000225031092D933C933AC020910B043091A1
:102980000C04232B41F42091050130910601309372
:102990000C0420930B0420910301309104012115B4
:1029A000310541F42DB73EB7409107015091080120
:1029B000241B350BE0910B04F0910C04E217F30794
:1029C000A0F42E1B3F0B2817390778F0AC014E5F9F
:1029D0005F4F2417350748F04E0F5F1F50930C04CC
:1029E00040930B048193919302C0E0E0F0E0CF01AB
:1029F000DF91CF9108950F931F93CF93DF930097AB
:102A000009F48CC0FC0132971382128200910D04EC
:102A100010910E040115110581F420813181820F7E
:102A2000931F20910B0430910C042817390779F576
:102A3000F0930C04E0930B0471C0D80140E050E027
:102A4000AE17BF0750F412962D913C911397AD012C
:102A50002115310509F1D901F3CF9D01DA01338345
:102A6000228360817181860F971F8217930769F413
:102A7000EC0128813981260F371F2E5F3F4F3183AC
:102A800020838A819B8193838283452B29F4F09351
:102A90000E04E0930D0442C01396FC93EE9312973C
:102AA000ED01499159919E01240F351FE217F3075B
:102AB00071F480819181840F951F029611969C93E9
:102AC0008E938281938113969C938E931297E0E06C
:102AD000F0E0D80112968D919C911397009719F010
:102AE000F8018C01F6CF8D919C9198012E5F3F4F9C
:102AF000820F931F20910B0430910C042817390783
:102B000069F4309729F410920E0410920D0402C05B
:102B10001382128210930C0400930B04DF91CF9167
:102B20001F910F910895A0E0B0E0E9E9F5E10C9460
:102B3000D413EC01009721F4CB010E946614B8C0B5
:102B4000FC01E60FF71F9C0122503109E217F30741
:102B500008F4ACC0D9010D911C9111970617170705
:102B6000B0F00530110508F49FC0C801049786171E
:102B7000970708F499C002501109061B170B01931F
:102B800011936D937C93CF010E94FB148DC05B0168
:102B9000A01AB10A4C01800E911EA0910D04B091B3
:102BA0000E0440E050E0E12CF12C109709F44AC0EB
:102BB000A815B905D1F56D907C901197630182E05D
:102BC000C80ED11CCA14DB0480F1A3014A195B09A9
:102BD0006A0182E0C80ED11C1296BC90129713961F
:102BE000AC91B5E0CB16D10440F0B282A3835183FF
:102BF0004083D9016D937C930AC00E5F1F4FC301C0
:102C0000800F911FF90191838083EB2DFA2FE1143E
:102C1000F10431F0D7011396FC93EE93129744C060
:102C2000F0930E04E0930D043FC08D919C91119799
:102C30004817590708F4AC017D0112960D90BC911C
:102C4000A02DB3CF80910B0490910C0488159905A9
:102C5000E1F446175707C8F48091030190910401ED
:102C6000009741F48DB79EB740910701509108013C
:102C7000841B950BE817F907C8F4F0930C04E09354
:102C80000B04F901718360830FC0CB010E946614AD
:102C90007C01009759F0A801BE010E946216CE0186
:102CA0000E94FB14C70104C0CE0102C080E090E086
:102CB000CDB7DEB7EEE00C94F01381E090E0F8942D
:102CC0000C947216FB01DC0102C001900D92415080
:102CD0005040D8F70895FB01DC0101900D920020CF
:082CE000E1F70895F894FFCF1D
:102CE80001010100000F0480000002037F0A870A27
:102CF8000002037F0A870A00004000140054001FE6
:102D08001C1F1E1F1E1F1F1E1F1E1F000000004D20
:102D18000CE50B100C940CA2051F0C330C000000E2
:102D2800000501D500B4008700AB009700880000BB
:102D3800000000CF08E50BB400B30041524520590C
:102D48004F5520535552453F202020003E205945DD
:102D5800532C20003E204E4F0030003A003E0053D6
:102D6800415645202020202020004E455720504520
:102D7800542020200044454C4554452050455400DB
:102D88004C45415645204D454E55003A28003A29B4
:102D9800003A44002D2D002D6F006F6F006F4F001B
:102DA8004F4F003D3D00464545440047524F5700B0
:102DB800504C41590058004C6F6164205065743F75
:102DC8002028555029004E6577205065743F2020F3
:102DD80028444F574E29003E204C4F4144004E4F47
:102DE800205341564520464F554E442E003E204321
:102DF800524541544500534156450044454C4554BD
:102E08004500536176696E672E2E2E0053617665F4
:102E1800642E00526573657474696E672E2E2E00D9
:102E280044656C6574696E672E2E2E0044656C656A
:0C2E38007465642E003A20000D0A0000B2
:107E0000112484B714BE81FFF0D085E080938100F7
:107E100082E08093C00088E18093C10086E0809377
:107E2000C20080E18093C4008EE0C9D0259A86E02C
:107E300020E33CEF91E0309385002093840096BBD3
:107E4000B09BFECF1D9AA8958150A9F7CC24DD24C4
:107E500088248394B5E0AB2EA1E19A2EF3E0BF2EE7
:107E6000A2D0813461F49FD0082FAFD0023811F036
:107E7000013811F484E001C083E08DD089C08234E0
:107E800011F484E103C0853419F485E0A6D080C0E4
:107E9000853579F488D0E82EFF2485D0082F10E0AE
:107EA000102F00270E291F29000F111F8ED06801E7
:107EB0006FC0863521F484E090D080E0DECF843638
:107EC00009F040C070D06FD0082F6DD080E0C81688
:107ED00080E7D80618F4F601B7BEE895C0E0D1E017
:107EE00062D089930C17E1F7F0E0CF16F0E7DF06D8
:107EF00018F0F601B7BEE89568D007B600FCFDCFD4
:107F0000A601A0E0B1E02C9130E011968C91119780
:107F100090E0982F8827822B932B1296FA010C0160
:107F200087BEE89511244E5F5F4FF1E0A038BF0790
:107F300051F7F601A7BEE89507B600FCFDCF97BE46
:107F4000E89526C08437B1F42ED02DD0F82E2BD052
:107F50003CD0F601EF2C8F010F5F1F4F84911BD097
:107F6000EA94F801C1F70894C11CD11CFA94CF0C13
:107F7000D11C0EC0853739F428D08EE10CD085E9AC
:107F80000AD08FE07ACF813511F488E018D01DD067
:107F900080E101D065CF982F8091C00085FFFCCF94
:107FA0009093C60008958091C00087FFFCCF809118
:107FB000C00084FD01C0A8958091C6000895E0E648
:107FC000F0E098E1908380830895EDDF803219F02E
:107FD00088E0F5DFFFCF84E1DECF1F93182FE3DFCA
:107FE0001150E9F7F2DF1F91089580E0E8DFEE27F6
:047FF000FF270994CA
:027FFE00040479
:0400000300007E007B
:00000001FF
